S00C0000746573742E7372656358
S113000020E8FF1FA9090000F30100004B090000CC
S113001000000000000000000000000000000000DC
S11300200000000000000000000000000B0A0000B7
S11300300000000000000000170A0000C10A0000D0
S1130040590A0000610A0000690A0000710A0000F0
S1130050B90A0000B90A0000B90A0000B90A000090
S1130060790A0000810A0000890A0000910A000050
S1130070990A0000A10A0000A90A0000B90A0000B8
S1130080B90A0000B90A0000B90A0000B90A000060
S1130090B90A0000B90A0000B90A0000B10A000058
S11300A0B90A0000B90A0000B90A0000B90A000040
S11300B0B90A0000B90A0000B90A0000B90A000030
S11300C030B580221D4B1C781442FAD01C78A4064B
S11300D002D41C78E40601D530241C700624184D83
S11300E02C700400240C174D2C70040A164D2C702F
S11300F0164C20700800164C2070080A154C20700D
S11301000800000C144C2070080E144908701A7072
S113011030BD10B58021094A13780B42FAD0092367
S1130120074C237003001B0C064C2370030A064C77
S11301302370064B1870117010BD000000000240BF
S1130140070002400600024005000240040002408D
S11301500B0002400A00024009000240080002406D
S113016000B5010008000A00D2B2303A0A2A02D2CD
S1130170D031080013E00A00D2B2413A062A02D272
S1130180C93108000BE00A00D2B25B2A07D00A008A
S1130190D2B25D2A03D0C9B22F2900D0FF20C0B249
S11301A000BD000070B4103A03D378C9103A78C087
S11301B0FBD2530701D318C918C001D508C908C018
S11301C0D20704D30B880380891C801C002A01D524
S11301D00B78037070BC70478B0701D18307E1D0A3
S11301E0124205D00B78491C0370401C521EF9D1F1
S11301F07047FEE770470000FFFFFFFFFFFFFFFFB0
S113020000F80300000040010000000000000000AE
S107021000000000E6
S1130400FFFFFFFFFFFFFFFFFFFFFFFFFEFFFFFFF9
S11304100121C006C00E814060480160704780B56C
S113042072B600F0A9F800F0D1F800F0BFF9FE2090
S11304308002FFF76EFE62B6FEE710B558480078FA
S1130440800600D494E0574C57480078C0B2FFF7B8
S113045087FE207020782F280AD154480168491C4F
S113046001600168022900DA82E0002101607FE076
S11304702078FF287CD04E48017800290AD12278C0
S11304804C490B68D2B212071A430A600178491C1E
S1130490017063E0017801290AD1227845490B688B
S11304A0D2B212061A430A600178491C017055E061
S11304B0017802290AD122783E490B68D2B212058A
S11304C01A430A600178491C017047E00178032946
S11304D00AD1227837490B68D2B212041A430A604F
S11304E00178491C017039E0017804290AD1227885
S11304F030490B68D2B212031A430A600178491CCE
S113050001702BE0017805290AD1227829490B686A
S1130510D2B212021A430A600178491C01701DE02C
S1130520017806290AD1227822490B68D2B2120135
S11305301A430A600178491C01700FE00178072909
S11305400CD122781B490B68D2B21A430A600022EC
S11305500A6019490B681B1D0B6002701348006880
S1130560012805D11348016813480068FFF7A8FD66
S11305700C20FFF74DFF10BD10B5802040000F4A3E
S113058000210B0004E01C6814601B1D121D491C93
S11305908142F8D309480A49086010BD80E200E0AE
S11305A004A0064018E0FF1F07A0064014E0FF1F48
S11305B019E0FF1F10E0FF1F08E0FF1F00400020AC
S11305C008ED00E0002053490860704730B5C020B2
S11305D0514A1178030019427CD1504C20784006CE
S11305E068D41078400726D44D484E490978302302
S11305F00B40002B14D0117838230B40302B04D03F
S1130600382B05D1C021C90011E0A021C9000EE09A
S113061020211278D2B2D2085207520F914006E03C
S113062001211278D2B2D2085207520F914089B2F6
S113063000F01CF901E0802000023B490978C9B2AE
S1130640E0220A40002A0ED0202A18D0402A1AD0CC
S1130650602A1CD0802A1ED0A02A20D0C02A22D0F2
S1130660E02A23D025E0A021890048432F490968C6
S1130670090F491C00F0FAF82D49086030BDA0218B
S1130680C9004843F2E7F021C9004843EEE7A0213E
S113069009014843EAE7B72189004843E6E7B7215F
S11306A0C9004843E2E723494843DFE72249484376
S11306B0DCE7DBE71F2521480178C9B22940491C42
S11306C0174889B200F0D2F821780D401835ADB240
S11306D06843CBE711780140402913D111480078D1
S11306E0C00702D480200002C0E70121144800782A
S11306F0C0B240084007400F8140124889B200F060
S1130700B5F8B3E711780840802801D10448ADE773
S1130710B4E7000000810440004006400540064064
S113072000127A0001400640034006404480044021
S11307300CE0FF1F95080000710B00000440064008
S11307400840064000093D000121C006C00E81405A
S113075035480160704770B505000C000026300074
S113076005E03000C0B2285C00F015F8761C3000BB
S11307702100C0B2C9B28842F3D30A2000F00BF8BA
S113078070BD80B52948017820220A4302700C20EC
S1130790FFF7DAFF01BD00B530490A781206FBD530
S11307A02F4A107008784006FCD500BDF8B52048E3
S11307B0017880220A4302708020C0041D49086029
S11307C01E4801688022D2000A4302608020800013
S11307D019490A6802430A601C4908601C490860F8
S11307E012480178F3220A4002700021154A117060
S11307F09C22154B1A70174A1170174A11700F2258
S11308000F4B1A70174A11700C210170FFF7B9FFD2
S1130810684615490F22FFF7DFFC0F216846FFF7F2
S11308209AFF05B000BD000000E100E003A006400F
S1130830034006400480044038800440348004406F
S11308400AA0064000A0064001A00640049004400F
S11308500890044002A0064006A0064004A00640FA
S113086007A006400BA00640480A00000022030A25
S11308708B420BD203098B4219D243088B422ED2EE
S1130880411A00D20146524110467047FF22090224
S11308903FD012068B4205D3121209028B4201D3B8
S11308A01212090203098B4219D300E0090AC30991
S11308B08B4201D3CB01C01A524183098B4201D32D
S11308C08B01C01A524143098B4201D34B01C01A18
S11308D0524103098B4201D30B01C01A5241C30890
S11308E08B4201D3CB00C01A524183088B4201D3FF
S11308F08B00C01A524143088B4201D34B00C01AEB
S11309005241884200D3401A5241CFD20146104688
S1130910704708B5FFF76EFC08BD30B401220EE045
S11309200368C31844680830144202D04D462C1999
S1130930641E1D6825601B1D241D091FF9D1016853
S1130940001D0029ECD130BC7047FEE710B500F063
S113095013F8020000230024E4431068A04203D0EB
S113096011000220ABBE13605068A04203D0111DD9
S11309700220ABBE536010BD0048704700E0FF1F6B
S113098010B5074979441831064C7C44163404E008
S1130990081D0A68891888470100A142F8D110BDD2
S11309A02C0000003C00000072B6044804490160B9
S11309B00448804762B604480047000008ED00E0A0
S11309C000000000C50500002D0A00004FFFFFFFD6
S11309D01C00000024F8FFFF00E0FF1F00000000DF
S11309E000F00DF8002801D0FFF7CAFF00BF00BFD8
S11309F0002000BF00BFFFF712FD00F002F8012045
S1130A00704780B500F002F801BDFEE7074638469E
S1130A1000F002F8FBE7FEE780B5FFF797FF024A14
S1130A2011001820ABBEFBE7260002000548014672
S1130A3003B4684680F3098800BF00BF00BF00BF4D
S1130A40FFF7CEFFA5EDF5FE737461727420747226
S1130A50616E73666572000000480047B90A0000C1
S1130A6000480047B90A000000480047B90A0000DE
S1130A7000480047B90A000000480047B90A0000CE
S1130A8000480047B90A000000480047B90A0000BE
S1130A9000480047B90A0000004800473B04000032
S1130AA000480047B90A000000480047B90A00009E
S1130AB000480047B90A000000480047B90A00008E
S1050AC0FEE74B
S9030A2DC5
