S00C0000746573742E7372656358
S113000058E8FF1F91100000C10000001501000016
S113001000000000000000000000000000000000DC
S1130020000000000000000000000000FF0F0000BE
S1130030000000000000000033100000F310000076
S11300404111000049110000511100005911000034
S1130050A1110000A1110000A1110000A1110000D4
S11300606111000069110000711100007911000094
S1130070811100008911000091110000A1110000FC
S1130080A1110000A1110000A1110000A1110000A4
S1130090A1110000A1110000850C000099110000BD
S11300A0A1110000A1110000A1110000A111000084
S11300B0A1110000A1110000A1110000D10600004F
S11300C0FEE700B501000200D2B2303A0A2A02D299
S11300D0D03001001BE00200D2B2413A062A02D21B
S11300E0C930010013E00200D2B25B2A0FD0020033
S11300F0D2B25D2A0BD00200D2B22F2A07D002005E
S1130100D2B2632A03D0C0B26A2800D0FF2108000B
S1130110C0B200BDFEE7000030B580221D4B1C7844
S11301201442FAD01C78A40602D41C78E40601D543
S113013030241C700624184D2C700400240C174D18
S11301402C70040A164D2C70164C20700800164CA6
S11301502070080A154C20700800000C144C207004
S1130160080E144908701A7030BD10B58021094A70
S113017013780B42FAD00923074C237003001B0C9D
S1130180064C2370030A064C2370064B187011703A
S113019010BD0000000002400700024006000240BB
S11301A005000240040002400B0002400A00024025
S11301B0090002400800024010B50023190004E0C1
S11301C0521C044CA242FBD3491C814201D21A00A6
S11301D0F7E710BD701700004168C9680122037A6F
S11301E09A400A434068C2607047000000D004404F
S11301F0000100F81D01000000C00440C00000F828
S1130200050100000000000000005000010105008D
S113021000B00440800000F80303000000B0044074
S1130220800000F80C030000FFFFFFFFFFFFFFFF4B
S113023000E803000000400100000000000000008E
S107024000000000B6
S1130400FFFFFFFFFFFFFFFFFFFFFFFFFEFFFFFFF9
S11304100121C006C00E8140A1480160704701213E
S1130420C006C00E81409F4801607047F0B50200CD
S113043052B2002A1CD518230F259B4C020052B23D
S11304402A40083A92089200060076B23540083DE8
S1130450AD08AD006559FF26C7001F40BE40B54337
S11304608901C9B2C000034099402943A15015E055
S11304708E4A1823040064B2A408A4001459FF256A
S1130480C6001E40B540AC438901C9B2C5002B402B
S11304909940214340B2800880001150F0BD844946
S11304A04018000BC0B2704738B5002425008049BD
S11304B04118804A914244D20125FFF7F0FFC0B2AF
S11304C0002806D002281AD00ED304282DD021D318
S11304D036E08020800078490A680240002A02D170
S11304E00A68104308602CE08021C9007248026841
S11304F00A40002A02D102681143016021E08021F0
S113050009016D4802680A40002A02D102681143B9
S1130510016016E080214901674802680A40002A08
S113052002D10268114301600BE080218901624815
S113053002680A40002A02D102681143016000E007
S113054025002800C0B2002801D100F0BFF828001F
S1130550C0B232BD70B50500012634002868FFF72B
S1130560A3FF687A012832D003285DD12868297A4C
S113057089002A682B7A9B00D258504B1340435071
S11305802868297A89002A682B7A9B00D25880230C
S11305905B001343435068684069297A8E40B04336
S11305A0696848612868297A89002A682B7A9B003F
S11305B0D25803239A4342502868297A89002A682A
S11305C02B7A9B00D2586B7A134343502DE0286852
S11305D0297A89002A682B7A9B00D258374B13401A
S11305E043502868297A89002A682B7A9B00D258BC
S11305F080235B0013434350686841692A7A3000C2
S1130600904081436868416168684069297A320092
S11306108A4002436868426168684068297A8E406B
S113062006436868466000E000242000C0B2002849
S113063001D100F04BF82000C0B270BDF8B51C0029
S113064001250F680B7A9E00B4460B680E7AB6003B
S11306509E591B4B33406646BB510E680B7A9B0078
S11306600F68097A89007F58D2B21204F021090375
S113067011403943F15040B2FFF7CAFE21001F2058
S1130680FFF7D4FE2800C0B2F2BD0E480168002175
S1130690C94301600C480268016070470000000013
S11306A000E100E080E200E01CED00E000E400E096
S11306B00070FBBF0140000038800440FFF8FFFFDA
S11306C0FFFFF0FFA0B00440A0C0044000B5FEE767
S11306D080B500F025F9FFF7D8FF1F20FFF79FFE34
S11306E001BD00000121C006C00E81409048016098
S11306F0704738B572B68F4C2000FFF72BFF8E4839
S1130700FFF728FF8D48FFF725FF8D4D2800FFF7E1
S113071021FF00230A2221001F20FFF78FFF00235F
S11307200A2229001F20FFF789FF00F0BDF800F01E
S11307302FF9844800F031FA0A2000F080FB62B6F9
S1130740814800681528FBD300F0C0F8F8E770B5BD
S11307507E480078800600D4A2E000247A48046031
S11307607B4E7C480078C0B2FFF7ABFC3070307829
S11307702F2809D178480178491C01700178022991
S113078000DA8DE004708BE03078632804D173487C
S11307900068FFF7EAFC83E030786A2802D100F0B1
S11307A095F87DE03078FF287AD06D4D28780028C0
S11307B00AD131786B480268C9B209071143016054
S11307C02878401C28706BE0287801280AD13178F9
S11307D064480268C9B20906114301602878401CC4
S11307E028705DE0287802280AD131785D480268D3
S11307F0C9B20905114301602878401C28704FE0F4
S1130800287803280AD1317856480268C9B2090405
S1130810114301602878401C287041E0287804289E
S11308200AD131784F480268C9B209031143016003
S11308302878401C287033E0287805280AD13178BC
S113084048480268C9B20902114301602878401C73
S1130850287025E0287806280AD1317841480268B2
S1130860C9B20901114301602878401C287017E0BF
S11308702878072814D130783A4E3168C0B208433A
S1130880306035480078012804D131683348006865
S1130890FFF742FC346031480168091D01602C7087
S11308A00C20FFF71FFF70BD10B5802040002E4ABA
S11308B000210B0004E01C6814601B1D121D491C60
S11308C08142F8D328482949086010BD80B572B622
S11308D00021274801602748016027480160274814
S11308E00268274B1340036008000800FA208002C6
S11308F0006880F30888BFF35F8FFA2080021B49E9
S11309000860BFF34F8F1F480068804701BD80B562
S11309100948FFF761FC0C480168491C016001BDEE
S113092080B50648FFF758FC6420FFF745FC01BD7D
S113093080E200E024E0FF1F0CE0FF1F00E0FF1F47
S113094030E0FF1F18E0FF1F50E0FF1F04A0064027
S113095054E0FF1F07A0064056E0FF1F44E0FF1FBE
S113096055E0FF1F4CE0FF1F0040002008ED00E0B1
S113097010E000E014E000E018E000E024ED00E006
S1130980FF7FFFFF04E8030000205349086070471D
S113099030B5C020514A1178030019427CD1504C23
S11309A02078400668D41078400726D44D484E4934
S11309B0097830230B40002B14D0117838230B40D6
S11309C0302B04D0382B05D1C021C90011E0A0215F
S11309D0C9000EE020211278D2B2D2085207520F79
S11309E0914006E001211278D2B2D2085207520F88
S11309F0914089B200F084FA01E0802000023B4972
S1130A000978C9B2E0220A40002A0ED0202A18D060
S1130A10402A1AD0602A1CD0802A1ED0A02A20D0B6
S1130A20C02A22D0E02A23D025E0A021890048430F
S1130A302F490968090F491C00F062FA2D49086022
S1130A4030BDA021C9004843F2E7F021C900484362
S1130A50EEE7A02109014843EAE7B72189004843AA
S1130A60E6E7B721C9004843E2E723494843DFE703
S1130A7022494843DCE7DBE71F2521480178C9B256
S1130A802940491C174889B200F03AFA21780D40F0
S1130A901835ADB26843CBE711780140402913D132
S1130AA011480078C00702D480200002C0E7012169
S1130AB014480078C0B240084007400F81401248F3
S1130AC089B200F01DFAB3E711780840802801D1FB
S1130AD00448ADE7B4E7000000810440004006404C
S1130AE00540064000127A000140064003400640DB
S1130AF04480044048E0FF1F95080000710B00008B
S1130B00044006400840064000093D000121C0069B
S1130B10C00E81405248016070470121C006C00EDA
S1130B208140504801607047F0B5020052B2002A7B
S1130B301CD518230F254C4C020052B22A40083A07
S1130B4092089200060076B23540083DAD08AD002B
S1130B506559FF26C7001F40BE40B5438901C9B28D
S1130B60C000034099402943A15015E03F4A18238F
S1130B70040064B2A408A4001459FF25C6001E4052
S1130B80B540AC438901C9B2C5002B40994021430B
S1130B9040B2800880001150F0BDF8B501210C006E
S1130BA0334A136880252D041D431560314A1368A8
S1130BB00225AB431360037A002B03D113680B4364
S1130BC0136003E013680125AB4313600023136033
S1130BD0294A436805782D01535103781B01D31822
S1130BE005782D015519AD68467A760002273E40F6
S1130BF02E439E6003781B01D31805782D015219EA
S1130C00926811439960817A1620FFF78DFF1620B0
S1130C10FFF77CFF2000C0B2F2BD00B517480068A2
S1130C20012801D1002006E015480068012801D1FF
S1130C30012000E00220C0B200BD10B40100012375
S1130C4018000D4A0C00E4B224011419E46823438B
S1130C50C9B209015118CB60C0B210BC7047000082
S1130C6000E100E080E200E01CED00E000E400E0D0
S1130C703C80044000700340007103400C71034049
S1130C801C71034080B5FFF7C8FFC0B2FFF7D5FF62
S1130C901620FFF742FFFFF73AFE01BD0121C0060F
S1130CA0C00E81407F4801607047F0B5020052B227
S1130CB0002A1CD518230F25794C020052B22A4071
S1130CC0083A92089200060076B23540083DAD0815
S1130CD0AD006559FF26C7001F40BE40B5438901DA
S1130CE0C9B2C000034099402943A15015E06E4A9F
S1130CF01823040064B2A408A4001459FF25C600F4
S1130D001E40B540AC438901C9B2C5002B4099408F
S1130D10214340B2800880001150F0BD70B5050039
S1130D200C000026300005E03000C0B2285C00F062
S1130D30ABF8761C30002100C0B2C9B28842F3D3AC
S1130D400A2000F0A1F870BD80B55848017820222F
S1130D500A4302700C20FFF7A1FF01BD544801783B
S1130D6004220A43027053480178BF220A400270E9
S1130D70514801784906490E017001789F220A40C2
S1130D8002704E4801684E4A0A40026001684D4AAA
S1130D900A408021C904114301604B480168802244
S1130DA092000A430260494801688022D2000A4343
S1130DB002607047E02046490A7802400623134344
S1130DC00B7044490A7810400870434801781A218E
S1130DD001707047414A424801681140016041492D
S1130DE00B681A400A608022920003681343036070
S1130DF00B681A430A6003220368134303600868FC
S1130E0002430A60704710B4DF2031490A78024077
S1130E100A70EF21344A13780B4013701378FD24C1
S1130E201C401470314A1378184010701078084030
S1130E3010702F4802781140017010BC70471FB524
S1130E400400FFF78BFFFFF7A3FDFFF7C3FFFFF7D6
S1130E50B1FFFFF7D8FF1548017808220A43027052
S1130E60017804220A430270FFF76EFF21000C2070
S1130E70FFF71BFF68461F490F2200F0B3F80F214C
S1130E806846FFF74BFF1FBD00B51B490A781206E1
S1130E90FBD51A4A107008784006FCD500BD000046
S1130EA01CED00E000E100E000E400E003A00640E7
S1130EB000400640054006400340064004800440CC
S1130EC0FFFFFEFFFFFFFFF338800440348004403F
S1130ED00AA0064000A0064001A00640FFF8FFFF5C
S1130EE0049004400890044002A0064005A0064077
S1130EF006A006403011000004A0064007A00640EA
S1130F000022030A8B420BD203098B4219D24308F5
S1130F108B422ED2411A00D20146524110467047EC
S1130F20FF2209023FD012068B4205D31212090296
S1130F308B4201D31212090203098B4219D300E038
S1130F40090AC3098B4201D3CB01C01A5241830958
S1130F508B4201D38B01C01A524143098B4201D306
S1130F604B01C01A524103098B4201D30B01C01A31
S1130F705241C3088B4201D3CB00C01A52418308AB
S1130F808B4201D38B00C01A524143088B4201D3D8
S1130F904B00C01A5241884200D3401A5241CFD26A
S1130FA001461046704708B500F02AF808BD000055
S1130FB070B4103A03D378C9103A78C0FBD25307FF
S1130FC001D318C918C001D508C908C0D20704D371
S1130FD00B880380891C801C002A01D50B780370C0
S1130FE070BC70478B0701D18307E1D0124205D052
S1130FF00B78491C0370401C521EF9D17047FEE760
S1131000704730B401220EE00368C3184468083006
S1131010144202D04D462C19641E1D6825601B1D08
S1131020241D091FF9D10168001D0029ECD130BC31
S11310307047FEE710B500F013F802000023002407
S1131040E4431068A04203D011000220ABBE136039
S11310505068A04203D0111D0220ABBE536010BDE6
S1131060004870473CE0FF1F10B507497944183128
S1131070064C7C44163404E0081D0A688918884725
S11310800100A142F8D110BD2C0000003C0000007A
S113109072B60448044901600448804762B60448B3
S11310A00047000008ED00E000000000890900008E
S11310B0151100004FFFFFFF5800000030F1FFFF43
S11310C000E0FF1F0000000000F00DF8002801D030
S11310D0FFF7CAFF00BF00BF002000BF00BFFFF73B
S11310E008FB00F002F80120704780B500F002F818
S11310F001BDFEE70746384600F002F8FBE70000B2
S113110080B5FFF797FF024A11001820ABBEFBE73A
S1131110260002000548014603B4684680F30988A6
S113112000BF00BF00BF00BFFFF7CEFFA5EDF5FE77
S11311307374617274207472616E736665720000F8
S113114000480047A111000000480047A111000019
S113115000480047A111000000480047A111000009
S113116000480047A111000000480047A1110000F9
S113117000480047A111000000480047A1110000E9
S1131180004800474F07000000480047A111000035
S113119000480047A111000000480047A1110000C9
S10B11A000480047A111000002
S9031115D6
