S00C0000746573742E7372656358
S113000030E8FF1F7D0A00006F010000730100004B
S113001000000000000000000000000000000000DC
S1130020000000000000000000000000C301000008
S11300300000000000000000A5080000DF0A000026
S11300402D0B0000350B00003D0B0000450B00009C
S11300508D0B00008D0B00008D0B00008D0B00003C
S11300604D0B0000550B00005D0B0000650B0000FC
S11300706D0B0000750B00007D0B00008D0B000064
S11300808D0B00008D0B00008D0B00008D0B00000C
S11300908D0B00008D0B00008D0B0000850B000004
S11300A08D0B00008D0B00008D0B00008D0B0000EC
S11300B08D0B00008D0B00008D0B00008D0B0000DC
S11300C00022030A8B420BD203098B4219D2430844
S11300D08B422ED2411A00D201465241104670473B
S11300E0FF2209023FD012068B4205D312120902E5
S11300F08B4201D31212090203098B4219D300E087
S1130100090AC3098B4201D3CB01C01A52418309A6
S11301108B4201D38B01C01A524143098B4201D354
S11301204B01C01A524103098B4201D30B01C01A7F
S11301305241C3088B4201D3CB00C01A52418308F9
S11301408B4201D38B00C01A524143088B4201D326
S11301504B00C01A5241884200D3401A5241CFD2B8
S113016001461046704708B500F002F808BDFEE7E6
S11301707047FEE770B4103A03D378C9103A78C0D8
S1130180FBD2530701D318C918C001D508C908C048
S1130190D20704D30B880380891C801C002A01D554
S11301A00B78037070BC70478B0701D18307E1D0D3
S11301B0124205D00B78491C0370401C521EF9D121
S11301C07047FEE700B50100C9B230390A2902D2EE
S11301D0D030C0B200BD0100C9B24139062901D2F4
S11301E0C930F6E7FEE70000000000000000000050
S11301F0000000000000000000FF040000E0FF1FFA
S1130200FFFFFFFFFFFFFFFF00F8030000004001B6
S10B02100000000000000000E2
S1130400FFFFFFFFFFFFFFFFFFFFFFFFFEFFFFFFF9
S1130410002053490860704730B5C020514A117814
S1130420030019427CD1504C2078400668D41078DF
S1130430400726D44D484E49097830230B40002B01
S113044014D0117838230B40302B04D0382B05D12D
S1130450C021C90011E0A021C9000EE020211278BA
S1130460D2B2D2085207520F914006E0012112780D
S1130470D2B2D2085207520F914089B2FFF720FE40
S113048001E0802000023B490978C9B2E0220A4019
S1130490002A0ED0202A18D0402A1AD0602A1CD054
S11304A0802A1ED0A02A20D0C02A22D0E02A23D01D
S11304B025E0A021890048432F490968090F491CF8
S11304C0FFF7FEFD2D49086030BDA021C900484357
S11304D0F2E7F021C9004843EEE7A02109014843AF
S11304E0EAE7B72189004843E6E7B721C900484352
S11304F0E2E723494843DFE722494843DCE7DBE7F7
S11305001F2521480178C9B22940491C174889B2DE
S1130510FFF7D6FD21780D401835ADB26843CBE71F
S113052011780140402913D111480078C00702D442
S113053080200002C0E7012114480078C0B24008BE
S11305404007400F8140124889B2FFF7B9FDB3E775
S113055011780840802801D10448ADE7B4E70000D1
S113056000810440004006400540064000127A0025
S113057001400640034006404480044024E0FF1F3D
S113058095080000710B0000044006400840064036
S113059000093D000121C006C00E81404B480160A6
S11305A07047F8B572B600F07FF8FFF735FF00F03A
S11305B0D5F8684646490F22FFF7F6FD62B60F21CB
S11305C0684600F0A0F8FE20800200F044F9FEE73F
S11305D070B540480078800662D53F4E3F480078A9
S11305E0C0B2FFF7EFFD30703D4C2078002811D1E8
S11305F031783C480268C9B2090611430160207889
S1130600401C2070307800F09EF83178364800F0B5
S11306107BF945E02078012811D13178314802680E
S1130620C9B20904114301602078401C207030785D
S113063000F089F831782C4800F066F930E0207831
S1130640022811D1317827480268C9B2090211433E
S113065001602078401C2070307800F074F8317804
S1130660214800F051F91BE02078032818D1307894
S11306701C4D2968C0B208432860307800F063F844
S11306803178194800F040F92968184E306800F0B4
S1130690B9F83068001D3060002001002170286026
S11306A00C20FFF777FF70BD10B580204000104A82
S11306B000210B0004E01C6814601B1D121D491C62
S11306C08142F8D30A480B49086010BD80E200E07B
S11306D01C0B000004A006402CE0FF1F07A00640EE
S11306E02DE0FF1F28E0FF1F10E0FF1F20E0FF1F89
S11306F00040002008ED00E00121C006C00E81404A
S113070030480160704770B505000C0000263000C9
S113071005E03000C0B2285C00F015F8761C30000B
S11307202100C0B2C9B28842F3D30A2000F00BF80A
S113073070BD80B52448017820220A4302700C2041
S1130740FFF7DAFF01BD00B52B490A781206FBD585
S11307502A4A107008784006FCD500BD80B51B48B5
S1130760017880220A4302708020C004184908607E
S1130770194801688022D2000A4302608020800068
S113078014490A6802430A60174908601749086057
S11307900D480178F3220A4002700021104A1170BA
S11307A09C22104B1A70124A1170124A11700F22B7
S11307B00A4B1A70124A11700C210170FFF7B9FF2D
S11307C001BD000000E100E003A006400340064034
S11307D00480044038800440348004400AA0064069
S11307E000A0064001A00640049004400890044084
S11307F002A0064006A0064004A0064007A006404A
S11308000BA0064030B580221D4B1C781442FAD050
S11308101C78A40602D41C78E40601D530241C708C
S11308200624184D2C700400240C174D2C70040A57
S1130830164D2C70164C20700800164C2070080AB7
S1130840154C20700800000C144C2070080E14493C
S113085008701A7030BD10B58021094A13780B4214
S1130860FAD00923074C237003001B0C064C237099
S1130870030A064C2370064B1870117010BD00005B
S1130880000002400700024006000240050002404A
S1130890040002400B0002400A000240090002402A
S11308A008000240FEE7000000B5C078002801D12E
S11308B0012000E00020C0B200BD00B50221415675
S11308C0C07809B200B2814201D1012000E00020C9
S11308D0C0B200BD70B505000C0001262800FFF76A
S11308E0ECFF00280CD16868012169568900401882
S11308F044606878401C6870E878401CE87000E048
S113090000263000C0B270BD70B504000E00012591
S11309102000FFF7D2FF00280CD160680121615646
S11309208900401846606078401C6070E078401C84
S1130930E07006E0200000F007F831002000FFF727
S1130940C9FF2800C0B270BDF8B5040000252E0010
S11309502000FFF7A9FF002826D160680021615616
S1130960890046580120205600216156401A29006A
S113097029000EE062680023E3560F00FFB2DB1982
S11309809B00D218576862680B00DBB29B00D750FB
S1130990491C0A000300D2B2DBB29A42EAD329000E
S11309A02170411E6170E0702800280016E014E0F8
S11309B00100C9B20022A25609B212B2914207DB69
S11309C0012161560200D2B209B212B29142EEDAAA
S11309D061680200D2B292008D50401C0100C9B27D
S11309E00222A25609B212B29142E1DB3000F2BDFA
S11309F030B401220EE00368C3184468083014427E
S1130A0002D04D462C19641E1D6825601B1D241D33
S1130A10091FF9D10168001D0029ECD130BC7047D1
S1130A2010B500F013F8020000230024E44310681A
S1130A30A04203D011000220ABBE13605068A04254
S1130A4003D0111D0220ABBE536010BD0048704797
S1130A5018E0FF1F10B5074979441831064C7C444F
S1130A60163404E0081D0A68891888470100A14269
S1130A70F8D110BD2C0000003C00000072B6044800
S1130A80044901600448804762B6044800470000F6
S1130A9008ED00E00000000011040000010B00005C
S1130AA051FFFFFF3000000040F7FFFF00E0FF1F91
S1130AB00000000000F00DF8002801D0FFF7CAFF85
S1130AC000BF00BF002000BF00BFFFF76AFD00F0B9
S1130AD002F80120704780B500F002F801BDFEE77E
S1130AE00746384600F002F8FBE7000080B5FFF740
S1130AF097FF024A11001820ABBEFBE72600020054
S1130B000548014603B4684680F3098800BF00BF66
S1130B1000BF00BFFFF7CEFFA5EDF5FE7374617251
S1130B2074207472616E7366657200000048004739
S1130B308D0B0000004800478D0B00000048004763
S1130B408D0B0000004800478D0B00000048004753
S1130B508D0B0000004800478D0B00000048004743
S1130B608D0B0000004800478D0B00000048004733
S1130B70D1050000004800478D0B000000480047E5
S1130B808D0B0000004800478D0B00000048004713
S1070B908D0B0000C5
S9030B01F0
